{
  "contractName": "Adoption",
  "abi": [
    {
      "inputs": [
        {
          "internalType": "uint256",
          "name": "",
          "type": "uint256"
        }
      ],
      "name": "adopters",
      "outputs": [
        {
          "internalType": "address",
          "name": "",
          "type": "address"
        }
      ],
      "stateMutability": "view",
      "type": "function",
      "constant": true
    },
    {
      "inputs": [
        {
          "internalType": "uint256",
          "name": "petId",
          "type": "uint256"
        }
      ],
      "name": "adopt",
      "outputs": [
        {
          "internalType": "uint256",
          "name": "",
          "type": "uint256"
        }
      ],
      "stateMutability": "nonpayable",
      "type": "function"
    },
    {
      "inputs": [
        {
          "internalType": "uint256",
          "name": "petId",
          "type": "uint256"
        }
      ],
      "name": "abandon",
      "outputs": [
        {
          "internalType": "uint256",
          "name": "",
          "type": "uint256"
        }
      ],
      "stateMutability": "nonpayable",
      "type": "function"
    },
    {
      "inputs": [],
      "name": "getAdopters",
      "outputs": [
        {
          "internalType": "address[16]",
          "name": "",
          "type": "address[16]"
        }
      ],
      "stateMutability": "view",
      "type": "function",
      "constant": true
    }
  ],
  "bytecode": "0x608060405234801561001057600080fd5b5061061e806100206000396000f3fe608060405234801561001057600080fd5b506004361061004c5760003560e01c80633de4eb171461005157806343ae80d31461006f5780638588b2c51461009f578063e0d217f2146100cf575b600080fd5b6100596100ff565b6040516100669190610531565b60405180910390f35b61008960048036038101906100849190610451565b610180565b6040516100969190610516565b60405180910390f35b6100b960048036038101906100b49190610451565b6101b6565b6040516100c6919061054d565b60405180910390f35b6100e960048036038101906100e49190610451565b6102e8565b6040516100f6919061054d565b60405180910390f35b610107610419565b6000601080602002604051908101604052809291908260108015610176576020028201915b8160009054906101000a900473ffffffffffffffffffffffffffffffffffffffff1673ffffffffffffffffffffffffffffffffffffffff168152602001906001019080831161012c575b5050505050905090565b6000816010811061019057600080fd5b016000915054906101000a900473ffffffffffffffffffffffffffffffffffffffff1681565b60008082101580156101c95750600f8211155b6101d257600080fd5b600073ffffffffffffffffffffffffffffffffffffffff1660008360108110610224577f4e487b7100000000000000000000000000000000000000000000000000000000600052603260045260246000fd5b0160009054906101000a900473ffffffffffffffffffffffffffffffffffffffff1673ffffffffffffffffffffffffffffffffffffffff161461026657600080fd5b33600083601081106102a1577f4e487b7100000000000000000000000000000000000000000000000000000000600052603260045260246000fd5b0160006101000a81548173ffffffffffffffffffffffffffffffffffffffff021916908373ffffffffffffffffffffffffffffffffffffffff160217905550819050919050565b60008082101580156102fb5750600f8211155b61030457600080fd5b3373ffffffffffffffffffffffffffffffffffffffff1660008360108110610355577f4e487b7100000000000000000000000000000000000000000000000000000000600052603260045260246000fd5b0160009054906101000a900473ffffffffffffffffffffffffffffffffffffffff1673ffffffffffffffffffffffffffffffffffffffff161461039757600080fd5b60008083601081106103d2577f4e487b7100000000000000000000000000000000000000000000000000000000600052603260045260246000fd5b0160006101000a81548173ffffffffffffffffffffffffffffffffffffffff021916908373ffffffffffffffffffffffffffffffffffffffff160217905550819050919050565b604051806102000160405280601090602082028036833780820191505090505090565b60008135905061044b816105d1565b92915050565b60006020828403121561046357600080fd5b60006104718482850161043c565b91505092915050565b60006104868383610492565b60208301905092915050565b61049b81610595565b82525050565b6104aa81610595565b82525050565b6104b981610572565b6104c3818461058a565b92506104ce82610568565b8060005b838110156104ff5781516104e6878261047a565b96506104f18361057d565b9250506001810190506104d2565b505050505050565b610510816105c7565b82525050565b600060208201905061052b60008301846104a1565b92915050565b60006102008201905061054760008301846104b0565b92915050565b60006020820190506105626000830184610507565b92915050565b6000819050919050565b600060109050919050565b6000602082019050919050565b600081905092915050565b60006105a0826105a7565b9050919050565b600073ffffffffffffffffffffffffffffffffffffffff82169050919050565b6000819050919050565b6105da816105c7565b81146105e557600080fd5b5056fea2646970667358221220852444a2994cf5d1662b6e594e071af84803541c36caec6a97851973e2477dd064736f6c63430008030033",
  "immutableReferences": {},
  "source": "pragma solidity >=0.8.0;\n\ncontract Adoption {\n    address[16] public adopters;\n\n    function adopt(uint petId) public returns (uint) {\n        require(petId >= 0 && petId <= 15);\n        require(adopters[petId] == address(0));\n        adopters[petId] = msg.sender;\n        return petId;\n    }\n\n    function abandon(uint petId) public returns (uint) {\n        require(petId >= 0 && petId <= 15);\n        require(adopters[petId] == msg.sender);\n        adopters[petId] = address(0);\n        return petId;\n    }\n\n\n    function getAdopters() public view returns (address[16] memory) {\n        return adopters;\n    }\n}",
  "sourcePath": "/Users/suah/Desktop/pet-shop-react/contracts/Adoption.sol",
  "compiler": {
    "name": "solc",
    "version": "0.8.3+commit.8d00100c.Linux.g++"
  },
  "schemaVersion": "3.4.3",
  "updatedAt": "2021-09-05T16:13:47.939Z",
  "networkType": "ethereum",
  "devdoc": {
    "kind": "dev",
    "methods": {},
    "version": 1
  },
  "userdoc": {
    "kind": "user",
    "methods": {},
    "version": 1
  }
}